:060000000A128A11EB2F29
:10000C0083120313CF01D00105300A168A119F27E2
:10001C000A128A1108000A128A153F220A128A1142
:10002C00F301F30A01300A128A154F220A128A11BF
:10003C00F93083120313A1008830A2000A128A152A
:10004C00A6220A128A110B3083120313DA0026300F
:10005C00D9005D30D800D80B3128D90B3128DA0BF8
:10006C003128013083120313D2000030D3000A125E
:10007C008A156B220A128A1183120313DB00F30117
:10008C00F30A02300A128A154F220A128A118312BD
:10009C0003135B08031D532854285E282130A1004C
:1000AC008A30A2000A128A15A6220A128A11B628D0
:1000BC00D530A1008830A2000A128A15A6220A1295
:1000CC008A11831203135B0A031D6D286E28B62850
:1000DC000B3083120313DA002630D9005D30D800C0
:1000EC00D80B7628D90B7628DA0B76280A128A15C3
:1000FC003F220A128A11F301F30A01300A128A15FF
:10010C004F220A128A11233083120313A100883064
:10011C00A2000A128A15A6220A128A11F301F30A06
:10012C0002300A128A154F220A128A1107308312E2
:10013C000313A1008930A2000A128A15A6220A1202
:10014C008A11273083120313DA000D30D9002530C1
:10015C00D800D80BAF28D90BAF28DA0BAF28B628AC
:10016C00173083120313DA00D530D9001530D800BC
:10017C00D80BBE28D90BBE28DA0BBE28C5280A120C
:10018C008A15CE220A128A1108000A128A15ED234A
:10019C000A128A110A128A153F220A128A11F301D5
:1001AC00F30A01300A128A154F220A128A11D5302D
:1001BC0083120313A1008930A2000A128A15A62209
:1001CC000A128A11F301F30A02300A128A154F221D
:1001DC000A128A11593083120313A1008930A2002C
:1001EC000A128A15A6220A128A112E3083120313C0
:1001FC00ED00A930EC002E30EB00EB0B0329EC0BDF
:10020C000329ED0B032900000A128A153F220A125A
:10021C008A11F301F30A01300A128A154F220A12CD
:10022C008A11743083120313A1008830A2000A12C1
:10023C008A15A6220A128A11F301F30A02300A1255
:10024C008A154F220A128A113F3083120313A10020
:10025C008930A2000A128A15A6220A128A110A16DD
:10026C008A11C0270A128A11063083120313ED007B
:10027C001330EC00AD30EB00EB0B4229EC0B4229B8
:10028C00ED0B42290A168A117E270A128A11831253
:10029C000313EE006E0A0319542955295B29FE300D
:1002AC006E06031D5A295B290B2A0A128A153F2256
:1002BC000A128A11F301F30A01300A128A154F222D
:1002CC000A128A118D3083120313A1008930A20007
:1002DC000A128A15A6220A128A110A168A11D32723
:1002EC000A128A11063083120313ED001330EC004E
:1002FC00AD30EB00EB0B8029EC0B8029ED0B80294A
:10030C000A168A117E270A128A1183120313EE0031
:10031C006E0A0319922993299929FE306E06031D42
:10032C0098299929D3290A128A153F220A128A116F
:10033C00F301F30A01300A128A154F220A128A11AC
:10034C00C03083120313A1008830A2000A128A1550
:10035C00A6220A128A11F301F30A02300A128A1534
:10036C004F220A128A11003083120313A100883025
:10037C00A2000A128A15A6220A128A11333083129D
:10038C000313ED00BB30EC00DF30EB00EB0BCC29A2
:10039C00EC0BCC29ED0BCC29342A0A128A153F22FE
:1003AC000A128A11F301F30A01300A128A154F223C
:1003BC000A128A110230831203136E06031DE729F9
:1003CC00E829F229EB30A1008830A2000A128A1524
:1003DC00A6220A128A11FB296430A1008830A200DF
:1003EC000A128A15A6220A128A11173083120313D5
:1003FC00ED00D530EC001530EB00EB0B032AEC0BC9
:10040C00032AED0B032A0A2A342A0A128A153F22E0
:10041C000A128A11F301F30A01300A128A154F22CB
:10042C000A128A110230831203136E06031D1F2A4F
:10043C00202A2A2AA230A1008830A2000A128A158A
:10044C00A6220A128A11FB291230A1008830A200C0
:10045C000A128A15A6220A128A11FB290A128A1577
:10046C00CE220A128A110A168A1189270A128A11B7
:10047C00831203130618432A442A702A023083126B
:10048C000313ED000430EC00B930EB00EB0B4C2AFD
:10049C00EC0B4C2AED0B4C2A532A8312031306182F
:1004AC00582A592A702A652A413083120313EC000A
:1004BC00ED30EB00EB0B602AEC0B602A652A831203
:1004CC000313061C6A2A6B2A5A2A0A128A11E22280
:1004DC000A128A11831203138618752A762AA22A05
:1004EC00023083120313ED000430EC00B930EB0042
:1004FC00EB0B7E2AEC0B7E2AED0B7E2A852A8312CF
:10050C00031386188A2A8B2AA22A972A413083122F
:10051C000313EC00ED30EB00EB0B922AEC0B922A60
:10052C00972A83120313861C9C2A9D2A8C2A0A1252
:10053C008A1132250A128A11831203130619A72A6B
:10054C00A82AD42A023083120313ED000430EC00E5
:10055C00B930EB00EB0BB02AEC0BB02AED0BB02A48
:10056C00B72A831203130619BC2ABD2AD42AC92A16
:10057C00413083120313EC00ED30EB00EB0BC42A7B
:10058C00EC0BC42AC92A83120313061DCE2ACF2AC8
:10059C00BE2A0A128A1111200A128A118230831281
:1005AC000313EC00DD30EB00EB0BDA2AEC0BDA2A50
:1005BC003E2A0A128A11002883120313E601E7016E
:1005CC00E801E9010A128A153F220A128A11F30185
:1005DC00F30A01300A128A154F220A128A1144308A
:1005EC0083120313A1008830A2000A128A15A622D6
:1005FC000A128A110B3083120313E3002630E20037
:10060C005D30E100E10B082BE20B082BE30B082B10
:10061C0083120313E4010A168A117E270A128A1127
:10062C0083120313EA006A08031D1D2B1E2B1F2BBC
:10063C00372B0B3083120313E3002630E2005D30BE
:10064C00E100E10B272BE20B272BE30B272B0130CF
:10065C0083120313E40732306402031C362B372B4E
:10066C00112B6A0803193B2B3C2B692B0A128A1598
:10067C003F220A128A11F301F30A01300A128A1579
:10068C004F220A128A11ED3083120313A100893014
:10069C00A2000A128A15A6220A128A111F3083128E
:1006AC000313E3007130E2001D30E100E10B5C2B21
:1006BC00E20B5C2BE30B5C2B632B0A128A15CE220C
:1006CC000A128A11312DF301F30A02300A128A152B
:1006DC004F220A128A11DD3083120313A1008830D5
:1006EC00A2000A128A15A6220A128A110630831257
:1006FC000313E3001330E200AD30E100E10B842B77
:10070C00E20B842BE30B842B01300A168A11AF27E2
:10071C000A128A1183120313EA006A080319972B31
:10072C00982BD32B0A128A153F220A128A11F30135
:10073C00F30A01300A128A154F220A128A1131303B
:10074C0083120313A1008930A2000A128A15A62273
:10075C000A128A11F301F30A02300A128A154F2287
:10076C000A128A110E3083120313A1008A30A200E0
:10077C000A128A15A6220A128A1127308312031331
:10078C00E3000D30E2002530E100E10BCB2BE20B56
:10079C00CB2BE30BCB2BD22B632B0A128A153F22CC
:1007AC000A128A11F301F30A01300A128A154F2238
:1007BC000A128A114C3083120313A1008930A20053
:1007CC000A128A15A6220A128A1106308312031302
:1007DC00E3001330E200AD30E100E10BF32BE20B50
:1007EC00F32BE30BF32B663083120313CF0068302B
:1007FC00D00001300A128A1575240A128A1183124C
:10080C000313EA006A08031D0C2C0D2CF62C0A129B
:10081C008A153F220A128A11F301F30A01300A12D7
:10082C008A154F220A128A11343083120313A10045
:10083C008830A2000A128A15A6220A128A11F30124
:10084C00F30A02300A128A154F220A128A113B301F
:10085C0083120313A1008A30A2000A128A15A62261
:10086C000A128A110A30F0000030F10083120313CF
:10087C006708F3006608F2000A128A15AB230A1205
:10088C008A117008303E0A128A1532230A128A1114
:10089C000A30F7000030F800831203136708FA00DF
:1008AC006608F9000A128A15FA220A128A117708C8
:1008BC00303E0A128A1532230A128A1133308312FF
:1008CC000313A1008A30A2000A128A15A6220A126A
:1008DC008A116430F0000030F100831203136908B0
:1008EC00F3006808F2000A128A15AB230A128A1167
:1008FC007008303E0A128A1532230A128A110A3005
:10090C00F7000030F8000A30F0000030F1008312DC
:10091C0003136908F3006808F2000A128A15AB2366
:10092C000A128A117108FA007008F9000A128A1565
:10093C00FA220A128A117708303E0A128A153223DB
:10094C000A128A110A168A1194270A128A11831222
:10095C000313E5011A3083120313E3005E30E20047
:10096C006D30E100E10BB82CE20BB82CE30BB82C8A
:10097C00BF2C013083120313E5070F306502031CF3
:10098C00C82CC92CB02C0A128A153F220A128A11C3
:10099C00F301F30A01300A128A154F220A128A1146
:1009AC00543083120313A1008830A2000A128A1556
:1009BC00A6220A128A110A168A1189270A128A118A
:1009CC00153083120313E3004B30E200BD30E1001D
:1009DC00E10BEE2CE20BEE2CE30BEE2CF52C632B47
:1009EC000A128A153F220A128A11F301F30A013006
:1009FC000A128A154F220A128A11843083120313A9
:100A0C00A1008830A2000A128A15A6220A128A11A5
:100A1C00F301F30A02300A128A154F220A128A11C4
:100A2C00B13083120313A1008830A2000A128A1578
:100A3C00A6220A128A112E3083120313E300A93066
:100A4C00E2002E30E100E10B292DE20B292DE30B06
:100A5C00292D0000632B08000A128A153F220A1266
:100A6C008A11F301F30A01300A128A154F220A1275
:100A7C008A11E13083120313A1008930A2000A12FB
:100A8C008A15A6220A128A11F301F30A02300A12FD
:100A9C008A154F220A128A11443083120313A100C3
:100AAC008830A2000A128A15A6220A128A1117305F
:100ABC0083120313DA00D530D9001530D800D80BC7
:100ACC00652DD90B652DDA0B652D6C2D8312031357
:100ADC00DB010A168A117E270A128A11831203136C
:100AEC00DE005E08031D7B2D7C2D7D2D952D0B309E
:100AFC0083120313DA002630D9005D30D800D80BEE
:100B0C00852DD90B852DDA0B852D0130831203131E
:100B1C00DB0732305B02031C942D952D6F2D5E0884
:100B2C000319992D9A2DC72D0A128A153F220A12E4
:100B3C008A11F301F30A01300A128A154F220A12A4
:100B4C008A11B13083120313A1008930A2000A125A
:100B5C008A15A6220A128A111F3083120313DA0097
:100B6C007130D9001D30D800D80BBA2DD90BBA2D45
:100B7C00DA0BBA2DC12D0A128A15CE220A128A114D
:100B8C00EA2F0A128A153F220A128A11F301F30A7C
:100B9C0001300A128A154F220A128A11A5308312CB
:100BAC000313A1008930A2000A128A15A6220A1288
:100BBC008A11123083120313DA00C230D900653067
:100BCC00D800D80BE72DD90BE72DDA0BE72DEE2D3E
:100BDC0001300A168A11AF270A128A1183120313E5
:100BEC00DE005E080319FB2DFC2D152E0A128A154A
:100BFC003F220A128A11F301F30A01300A128A15F4
:100C0C004F220A128A11733083120313A100893008
:100C1C00A2000A128A15A6220A128A11B22D0A12F1
:100C2C008A153F220A128A11F301F30A01300A12C3
:100C3C008A154F220A128A11153083120313A10050
:100C4C008930A2000A128A15A6220A128A112430AF
:100C5C0083120313DA008330D900CE30D800D80BBE
:100C6C00352ED90B352EDA0B352E000083120313DB
:100C7C00DC010A168A117E270A128A1183120313C9
:100C8C00DE0002305E06031D4C2E4D2E4E2E662EBF
:100C9C00063083120313DA001330D900AD30D800BC
:100CAC00D80B562ED90B562EDA0B562E013083123A
:100CBC000313DC0764305C02031C652E662E3F2E8A
:100CCC000A128A153F220A128A11F301F30A013023
:100CDC000A128A154F220A128A11933083120313B7
:100CEC00A1008830A2000A128A15A6220A128A11C3
:100CFC00153083120313DA004B30D900BD30D80005
:100D0C00D80B862ED90B862EDA0B862E8D2E8312BF
:100D1C000313DD010A168A117E270A128A11831227
:100D2C000313DE005E08031D9C2E9D2E9E2EB62EF8
:100D3C000B3083120313DA002630D9005D30D80053
:100D4C00D80BA62ED90BA62EDA0BA62E01308312A9
:100D5C000313DD0732305D02031CB52EB62E902E28
:100D6C005E080319BA2EBB2ED42E0A128A153F2206
:100D7C000A128A11F301F30A01300A128A154F2262
:100D8C000A128A11C93083120313A1008930A20000
:100D9C000A128A15A6220A128A11B22D0A128A1573
:100DAC003F220A128A11F301F30A01300A128A1542
:100DBC004F220A128A11BD3083120313A10089300D
:100DCC00A2000A128A15A6220A128A111230831264
:100DDC000313DA00C230D9006530D800D80BF42EDA
:100DEC00D90BF42EDA0BF42EFB2E02300A168A11D4
:100DFC00AF270A128A1183120313DE005E0803194F
:100E0C00082F092F222F0A128A153F220A128A1143
:100E1C00F301F30A01300A128A154F220A128A11C1
:100E2C00803083120313A1008930A2000A128A15A4
:100E3C00A6220A128A11B22D0A128A153F220A1210
:100E4C008A11F301F30A01300A128A154F220A1291
:100E5C008A11993083120313A1008930A2000A125F
:100E6C008A15A6220A128A110A128A1106200A125F
:100E7C008A1183120313DE005E080319462F472FD5
:100E8C00602F0A128A153F220A128A11F301F30A03
:100E9C0001300A128A154F220A128A116630831207
:100EAC000313A1008930A2000A128A15A6220A1285
:100EBC008A11B22DF301F30A02300A128A154F225D
:100ECC000A128A11F83083120313A1008930A20090
:100EDC000A128A15A6220A128A11013083120313F0
:100EEC00D2000030D30001300A168A11E6270A120C
:100EFC008A1183120313DE005E08031D862F872FD1
:100F0C00C22F0A128A153F220A128A11F301F30A20
:100F1C0001300A128A154F220A128A1118308312D4
:100F2C000313A1008A30A2000A128A15A6220A1203
:100F3C008A11F301F30A02300A128A154F220A129F
:100F4C008A11033083120313A1008A30A2000A1203
:100F5C008A15A6220A128A11293083120313DA0089
:100F6C009630D9007E30D800D80BBA2FD90BBA2FB7
:100F7C00DA0BBA2F0000C12D0A128A153F220A1271
:100F8C008A11F301F30A01300A128A154F220A1250
:100F9C008A11CF3083120313A1008830A2000A12E9
:100FAC008A15A6220A128A11243083120313DA003E
:100FBC008330D900CE30D800D80BE22FD90BE22FDA
:100FCC00DA0BE22F0000C12D080083120313EF018E
:100FDC0083160313A001A101A201A301A401A50181
:100FEC00A601A701A801A901AA01AB0183010A125C
:100FFC008A11CB2843346834653463346B34203421
:10100C0050346F347734653472342F345734693438
:10101C0072346534733400344134533436343034E0
:10102C0038342034523465347334703420343534CD
:10103C00373436343034303400344E346F3420345A
:10104C005234653470346C34793420342D3420347B
:10105C0043346834653463346B3400344134633462
:10106C0063346534733473342034473472346134EC
:10107C006E347434653464342134003450346C343C
:10108C006134633465342034463469346E346734E7
:10109C00653472342E342E342E3400344C346F3488
:1010AC0063346B3469346E346734203444346F34B5
:1010BC006F3472342E342E342E3400344134533485
:1010CC00363430343834203452346534733470341C
:1010DC0020343934363430343034003444346534CC
:1010EC00743465346334743469346E346734203446
:1010FC00413453343634303438340034413463346E
:10110C0063346534733473342034443465346E344E
:10111C006934653464342134003450346C346134B3
:10112C0063346534203441346734613469346E344B
:10113C002E342E342E34003441345334363430347F
:10114C00383420344F344B3420343534373436343F
:10115C003034303400344E346F34743420345234E0
:10116C00653467346934733474346534723465347B
:10117C00643400344134533436343034383420340D
:10118C004E346F3420345234653470346C347934CA
:10119C000034533474346F34723465342034463430
:1011AC00613469346C346534643421340034503423
:1011BC0072346F34633465347334733469346E341D
:1011CC0067342E342E342E340034413453343634B8
:1011DC003034383420344F344B34203439343634B2
:1011EC00303430340034443465346C346534743405
:1011FC0069346E3467342034493444343A343134ED
:10120C00003450346F3477346534723420342F34D6
:10121C002034543458342D3452345834003452342D
:10122C0065346D346F347634653420344634693427
:10123C006E34673465347234003431343A344334A8
:10124C006834653463346B34203432343A34453486
:10125C006E3472340034503472346F346334653409
:10126C007334733420344534723472346F347234C2
:10127C0000345434723479342034353437343634C1
:10128C00303430342E342E342E3400345334653410
:10129C00613472346334683469346E3467342E3498
:1012AC002E342E34003453344534433455345234B4
:1012BC00493454345934203453345934533400346D
:1012CC004D346134743463346834203446346134BE
:1012DC0069346C34653464340034503472346F3493
:1012EC00633465347334733431342034453472349C
:1012FC0072340034503472346F3463346534733464
:10130C0073343234203445347234723400345434EF
:10131C0072347934203439343634303430342E3419
:10132C002E342E34003443347234653461347434C6
:10133C0069346E3467342E342E342E3400344734F2
:10134C006F347434203449346D346134673465340B
:10135C002034313400344634613469346C346534AF
:10136C006434203449346D346734313400344734B8
:10137C006F347434203449346D34613467346534DB
:10138C002034323400344634613469346C3465347E
:10139C006434203449346D34673432340034463488
:1013AC002D343234323420345234413450345434A9
:1013BC004F345234003445346E3472346F346C34E0
:1013CC006C3420344D346F346434653400344E3412
:1013DC006F342034463469346E3467346534723477
:1013EC0021340034533474346F34723469346E34B1
:1013FC0067342E342E342E340034493444343A3489
:10140C0031342034533461347634653464340034EC
:10141C00543472347934203441346734613469344F
:10142C006E340034533455344334433445345334DC
:10143C00533421340034443465346C34653474349E
:10144C00653464342134003433343A3444346534F0
:10145C006C34653474346534003420345334633460
:10146C006F34723465343A340034493444343A3489
:10147C00003401300A128A156C230A128A150D30B9
:10148C00F400FB30F300F30B492AF40B492A4E2AE3
:10149C000800F40074030319542A552A5D2A7308B2
:1014AC00BF3EF500003003180130F600642A7308C3
:1014BC007F3EF500003003180130F60075080A1263
:1014CC008A156C230A128A15080000308312031344
:1014DC00D7000030D6000030D5000030D4005308BF
:1014EC00D4005208D500D6010130D7005430CF00BB
:1014FC000430D0000C300A168A119F270A128A1564
:10150C0008008316031307110C3083120313970082
:10151C00F9308316031392000630831203139200E2
:10152C00083095000230F2004530F100A930F0008F
:10153C00F00B9E2AF10B9E2AF20B9E2AA52A08007C
:10154C00BD2A2208FF00210884000A168A110020F7
:10155C000A128A150A128A1532230A128A150130C8
:10156C0083120313A1070318A20A0030A2078312E7
:10157C0003132208FF00210884000A168A11002098
:10158C000A128A15003A031DCC2ACD2AA72A080074
:10159C000A128A153F220A128A15F301F30A013046
:1015AC000A128A154F220A128A152330831203134A
:1015BC00A1008930A2000A128A15A6220A128A15E5
:1015CC00F301F30A02300A128A154F220A128A1505
:1015DC002A3083120313A1008A30A2000A128A1542
:1015EC00A6220A128A150800770878040319FF2A24
:1015FC00002B2D2B0130FB000C2B01300310F70DB1
:10160C00F80DFF3E031D042B0130FB07F81F0F2BB9
:10161C00102B032B78087A02031D162B77087902FE
:10162C00031C192B1A2B202B7708F9027808031CA2
:10163C00FA03FA0201300310F80CF70CFF3E031DFD
:10164C00212B0130FB02031D2C2B2D2B102B7A0888
:10165C00F8007908F700080083120313A00008149F
:10166C00F0302005FC0008080F397C048800881431
:10167C005330FC00FC0B402B8312031388105330A7
:10168C00FC00FC0B472B831203132008FC000430D6
:10169C000310FC0DFF3E031D4E2BF0307C05FD00AE
:1016AC0008080F397D04880088145330FC00FC0BAB
:1016BC005D2B8312031388100D30FD00FB30FC00F2
:1016CC00FC0B662BFD0B662B6B2B0800F2008312B8
:1016DC0003130810F0307205F00008080F3970047D
:1016EC00880088145330F000F00B7A2B831203130C
:1016FC0088100D30F100FB30F000F00B832BF10B58
:10170C00832B882B7208F00004300310F00DFF3E81
:10171C00031D8B2BF0307005F100831203130808A6
:10172C000F397104880088145330F000F00B9C2B97
:10173C008312031388100D30F100FB30F000F00B16
:10174C00A52BF10BA52BAA2B0800F401F5017008B1
:10175C0071040319B22BB32BE82B0130F600BF2B0D
:10176C0001300310F00DF10DFF3E031DB72B0130BE
:10177C00F607F11FC22BC32BB62B01300310F40D4F
:10178C00F50DFF3E031DC42B71087302031DD02BF6
:10179C0070087202031CD32BD42BDB2B7008F202C3
:1017AC007108031CF303F302741401300310F10CE1
:1017BC00F00CFF3E031DDC2B0130F602031DE72B62
:1017CC00E82BC32B7508F1007408F00008000630F4
:1017DC00831603139F008801FF30860007108710C3
:1017EC0007110713871783120313880186018701DA
:1017FC008316031381130630F8001330F700AD3055
:10180C00F600F60B072CF70B072CF80B072C0E2CFD
:10181C000A128A15FB250A128A150A168A11C02784
:10182C000A128A150A128A1587220A128A1583123D
:10183C000313071087140630F8001330F700AD308F
:10184C00F600F60B272CF70B272CF80B272C2E2C3D
:10185C0008000030FC000030FB000030FA000030C3
:10186C00F900701C3A2C3B2C522C7408F9077508A3
:10187C0003110318013E0319442CFA0776080311CF
:10188C000318013E03194B2CFB07770803110318AF
:10189C00013E0319522CFC070130F8000310F40D23
:1018AC00F50DF60DF70DF80B542C01300310F30C5D
:1018BC00F20CF10CF00CFF3E031D5C2C730872044F
:1018CC0071047004031D6B2C6C2C372C7C08F300FA
:1018DC007B08F2007A08F1007908F0000800831206
:1018EC000313D9005A3084000530FF0083138001A4
:1018FC00840AFF0B7C2C5908DA00DB01DC01DD01CA
:10190C00A330DE00E0015A30AB000530AC005130A2
:10191C00AD006030AE0004300A128A1580260A121F
:10192C008A1583120313DF005F08031D9E2C9F2C66
:10193C00BF2C04306002031CA42CA52CBF2C4F0818
:10194C000319A92CAA2CB22C4F088400520883131B
:10195C008000840A5108800050080319B62CB72C5B
:10196C00BF2C50088400540883138000840A530849
:10197C0080005F080800831203132108F00022087E
:10198C00F100F201F3010030F7000030F6000030F6
:10199C00F5002830F4000A128A152F240A128A1531
:1019AC00730883120313A6007208A5007108A40023
:1019BC007008A3000030AA000030A9000030A80075
:1019CC000030A700122D8C1EEC2CED2CFD2C981C3D
:1019DC00F02CF12CF32C18121816200884001A087D
:1019EC00831380000130A0000030A100262D293087
:1019FC00FD00FD0BFF2C0000013083120313A70721
:101A0C00003003180130A807003003180130A90773
:101A1C00003003180130AA0726082A02031D202DC6
:101A2C0025082902031D202D24082802031D202D22
:101A3C0023082702031C232D242DE92CA001A1012E
:101A4C000800003083120313AB000030AA000030F2
:101A5C00A9000030A8002308220421042004031943
:101A6C00382D392D842D0130AC00472D0130FD006F
:101A7C000310A00DA10DA20DA30DFD0B3E2D0130E9
:101A8C00AC07A31F4A2D4B2D3C2D0130FD0003103C
:101A9C00A80DA90DAA0DAB0DFD0B4D2D230827028A
:101AAC00031D622D22082602031D622D210825022A
:101ABC00031D622D20082402031C652D662D752D37
:101ACC002008A4022108031C210FA5022208031CD4
:101ADC00220FA6022308031C230FA702281401308F
:101AEC000310A30CA20CA10CA00CFF3E031D762D21
:101AFC000130AC02031D832D842D4B2D2B08A3002C
:101B0C002A08A2002908A1002808A00008008312B6
:101B1C000313B300B5303302031C952D962D982D6D
:101B2C00B430B3000030A3000030A2000030A1009C
:101B3C00B430A0003308AD00AE01AF01B0013008E5
:101B4C00F3002F08F2002E08F1002D08F0000030F1
:101B5C00F7000030F6000030F5006430F4000A1293
:101B6C008A152F240A128A15730883120313A700EF
:101B7C007208A6007108A5007008A4000A128A1544
:101B8C0027250A128A15831203132008323EB1004E
:101B9C0021080318013E003EB2003208AE003108A5
:101BAC00AD000310AE0CAD0C0310AE0CAD0C2D083B
:101BBC00950031080339AD0004300310AD0DFF3E24
:101BCC00031DE32D1708CF392D0497000B3083121A
:101BDC000313AF002630AE005D30AD00AD0BF42D1D
:101BEC00AE0BF42DAF0BF42D08000230F5000430D1
:101BFC00F400BA30F300F30B012EF40B012EF50BAD
:101C0C00012E0000831203130810881008080F39E6
:101C1C003038880088140D30F400FB30F300F30BDF
:101C2C00152EF40B152E1A2E831203138810213047
:101C3C00F4007630F300F30B212EF40B212E000070
:101C4C008312031308080F393038880088140D30BC
:101C5C00F400FB30F300F30B312EF40B312E362E47
:101C6C008312031388102130F4007630F300F30B49
:101C7C003D2EF40B3D2E00008312031308080F3980
:101C8C002038880088140D30F400FB30F300F30B7F
:101C9C004D2EF40B4D2E522E83120313881021302F
:101CAC00F4007630F300F30B592EF40B592E000090
:101CBC0028300A128A156C230A128A150C300A1263
:101CCC008A156C230A128A1506300A128A156C239F
:101CDC000A128A1501300A128A156C230A128A1507
:101CEC000D30F400FB30F300F30B7A2EF40B7A2E4C
:101CFC007F2E080083120313C6002C08033ECA0073
:101D0C00003003180130CB000A168A116B270A1217
:101D1C008A15EF300A168A1174270A128A150130B7
:101D2C000A168A1174270A128A15FF300A168A11AC
:101D3C0074270A128A15FF300A168A1174270A12A0
:101D4C008A15FF300A168A1174270A128A15FF3079
:101D5C000A168A1174270A128A1501300A168A117A
:101D6C0074270A128A15831203134B080A168A1158
:101D7C0074270A128A15831203134A080A168A1149
:101D8C0074270A128A158312031346080A168A113D
:101D9C0074270A128A15FF30831203134A05AF0009
:101DAC0000304B05B0004B08B2004A08B1003208B5
:101DBC00B100B201FF303105B30000303205B40080
:101DCC002F083307B50030080318300A3407B60063
:101DDC0046083507B7000030031801303607B80045
:101DEC003708013EC70038080318013E003EC80002
:101DFC00CE011F2F4E082B07AF002F088400831332
:101E0C0000080A168A1174270A128A158312031302
:101E1C004E082B07AF002F08840083130008B00076
:101E2C00B1013008C7070318C80A3108C8070130C8
:101E3C00CE072C084E02031C242F252F002F4808F8
:101E4C000A168A1174270A128A158312031347087B
:101E5C000A168A1174270A128A1583120313CE01EB
:101E6C004E08393EA000F430A1000130A2000A1245
:101E7C008A15C1240A128A1583120313200821041F
:101E8C00031D492F4A2F4C2FFF30FF2F0130CE0757
:101E9C0009304E02031C532F542F362FEF303906C6
:101EAC00031D592F5A2F5F2F3A0303195E2F5F2FF3
:101EBC00612FFE30FF2F4108AF00B0014008B10088
:101ECC00B2013108B200B1012F083104CC00300846
:101EDC003204CD004930A000F430A1000130A20042
:101EEC000A128A15C1240A128A15831203132008B8
:101EFC002104031D822F832F842F4A2F2D080319B1
:101F0C00882F892FD32F00304D02023003194C0239
:101F1C00031C912F922FD32F00304D022130031927
:101F2C004C0203189A2F9B2FA42F4C08FD3EC20085
:101F3C004D080318013EFF3EC300A82F2030C200FD
:101F4C000030C3004208C400CE01C32F4E082D0739
:101F5C00A000F430A1000130A2000A128A15C1249D
:101F6C000A128A158312031320082104031DBF2FA4
:101F7C00C02FC12FC92F0130CE0744084E02031CBD
:101F8C00C82FC92FAC2F2E080319CD2FCE2FD32F2E
:101F9C002E0884004E0883138000CE01EB2F4530B1
:101FAC00A000F430A1000130A2000A128A15C1244D
:101FBC000A128A158312031320082104031DE72F2C
:101FCC00E82FE92FFE2F0130CE074C08FF3EAF0063
:101FDC004D080318013EFF3EB0004E08FF003008CC
:101FEC00031DFA2F2F087F02031CFD2FFE2FD52F68
:101FFC0049080800FF1B0A2883137F188317000861
:10200C00840A0319FF0A08007F087F398A00040834
:08201C00840A0319FF0A820087
:102ED6006D2F1A08831203138C1A722F732F6C2FFF
:102EE6000800F000831203130C1E7A2F7B2F752F18
:102EF60070089900080083120313CF01D001013036
:102F06000A168A119F270A168A11080083120313CC
:102F1600071087145A300A128A158D250A168A1147
:102F26000800831203130714871000300A128A154B
:102F36008D250A168A11080083120313D1004F0843
:102F4600AB005008AC00AD01AE0151080A128A155B
:102F560080260A168A11080083120313D200D301B1
:102F66005208D3005330CF00D001D00A02300A16DF
:102F76008A119F270A168A1108008316031318124E
:102F86001815143099008312031398178316031328
:102F96009816831203131816831603138C1208004F
:102FA6008316031318121815813099008312031320
:102FB600981783160313981683120313181683168D
:102FC60003138C12080083120313D4000030D500BB
:102FD6000030D6000030D7005408D5005308D6007C
:102FE6005208D7005530CF000330D00006300A16FD
:0A2FF6008A119F270A168A110800AD
:02400E00723FFF
:00000001FF
